{
  "contractName": "register",
  "abi": [
    {
      "inputs": [],
      "stateMutability": "nonpayable",
      "type": "constructor"
    },
    {
      "inputs": [
        {
          "internalType": "string",
          "name": "name",
          "type": "string"
        },
        {
          "internalType": "string",
          "name": "adhar",
          "type": "string"
        },
        {
          "internalType": "string",
          "name": "password",
          "type": "string"
        },
        {
          "internalType": "string",
          "name": "phone",
          "type": "string"
        }
      ],
      "name": "addUser",
      "outputs": [],
      "stateMutability": "nonpayable",
      "type": "function"
    },
    {
      "inputs": [],
      "name": "viewUsers",
      "outputs": [
        {
          "internalType": "string[]",
          "name": "",
          "type": "string[]"
        },
        {
          "internalType": "string[]",
          "name": "",
          "type": "string[]"
        },
        {
          "internalType": "string[]",
          "name": "",
          "type": "string[]"
        },
        {
          "internalType": "string[]",
          "name": "",
          "type": "string[]"
        }
      ],
      "stateMutability": "view",
      "type": "function",
      "constant": true
    },
    {
      "inputs": [
        {
          "internalType": "string",
          "name": "adhaar",
          "type": "string"
        },
        {
          "internalType": "string",
          "name": "name",
          "type": "string"
        },
        {
          "internalType": "string",
          "name": "complaint",
          "type": "string"
        },
        {
          "internalType": "string",
          "name": "filehash",
          "type": "string"
        }
      ],
      "name": "addComplaints",
      "outputs": [],
      "stateMutability": "nonpayable",
      "type": "function"
    },
    {
      "inputs": [],
      "name": "viewComplaints",
      "outputs": [
        {
          "internalType": "uint256[]",
          "name": "",
          "type": "uint256[]"
        },
        {
          "internalType": "string[]",
          "name": "",
          "type": "string[]"
        },
        {
          "internalType": "string[]",
          "name": "",
          "type": "string[]"
        },
        {
          "internalType": "string[]",
          "name": "",
          "type": "string[]"
        },
        {
          "internalType": "string[]",
          "name": "",
          "type": "string[]"
        },
        {
          "internalType": "uint256[]",
          "name": "",
          "type": "uint256[]"
        },
        {
          "internalType": "uint256[]",
          "name": "",
          "type": "uint256[]"
        },
        {
          "internalType": "string[]",
          "name": "",
          "type": "string[]"
        }
      ],
      "stateMutability": "view",
      "type": "function",
      "constant": true
    },
    {
      "inputs": [],
      "name": "verifyLogin",
      "outputs": [
        {
          "internalType": "address",
          "name": "",
          "type": "address"
        },
        {
          "internalType": "string",
          "name": "",
          "type": "string"
        }
      ],
      "stateMutability": "view",
      "type": "function",
      "constant": true
    },
    {
      "inputs": [
        {
          "internalType": "uint256",
          "name": "complaintid",
          "type": "uint256"
        },
        {
          "internalType": "uint256",
          "name": "status",
          "type": "uint256"
        }
      ],
      "name": "updateCase",
      "outputs": [],
      "stateMutability": "nonpayable",
      "type": "function"
    },
    {
      "inputs": [
        {
          "internalType": "uint256",
          "name": "complaintid",
          "type": "uint256"
        },
        {
          "internalType": "uint256",
          "name": "status",
          "type": "uint256"
        },
        {
          "internalType": "string",
          "name": "filehash",
          "type": "string"
        }
      ],
      "name": "updatefir",
      "outputs": [],
      "stateMutability": "nonpayable",
      "type": "function"
    }
  ],
  "bytecode": "0x608060405234801561001057600080fd5b506000600c8190555033600d60006101000a81548173ffffffffffffffffffffffffffffffffffffffff021916908373ffffffffffffffffffffffffffffffffffffffff1602179055506119a0806100696000396000f3fe608060405234801561001057600080fd5b506004361061007c5760003560e01c806314ebdb791161005b57806314ebdb79146100d857806345520a52146100f95780634bdfa50614610115578063df1d891e146101315761007c565b80625ff3c91461008157806301cda3ac1461009d5780630b342c6c146100b9575b600080fd5b61009b60048036038101906100969190610ec2565b610156565b005b6100b760048036038101906100b29190611048565b6101c7565b005b6100c161030e565b6040516100cf9291906111df565b60405180910390f35b6100e0610373565b6040516100f0949392919061131b565b60405180910390f35b610113600480360381019061010e9190611048565b6106db565b005b61012f600480360381019061012a919061137c565b61088f565b005b61013961092d565b60405161014d9897969594939291906114a9565b60405180910390f35b60005b6004805490508110156101c2576004818154811061017a5761017961155f565b5b906000526020600020015483036101af5781600982815481106101a05761019f61155f565b5b90600052602060002001819055505b80806101ba906115bd565b915050610159565b505050565b600e836040516101d79190611641565b908152602001604051809103902060009054906101000a900460ff16156101fd57600080fd5b6000849080600181540180825580915050600190039060005260206000200160009091909190915090816102319190611864565b506001839080600181540180825580915050600190039060005260206000200160009091909190915090816102669190611864565b5060028290806001815401808255809150506001900390600052602060002001600090919091909150908161029b9190611864565b506003819080600181540180825580915050600190039060005260206000200160009091909190915090816102d09190611864565b506001600e846040516102e39190611641565b908152602001604051809103902060006101000a81548160ff02191690831515021790555050505050565b60006060600d60009054906101000a900473ffffffffffffffffffffffffffffffffffffffff166040518060400160405280600481526020017f3132333400000000000000000000000000000000000000000000000000000000815250915091509091565b606080606080600060016002600383805480602002602001604051908101604052809291908181526020016000905b8282101561044e5783829060005260206000200180546103c190611687565b80601f01602080910402602001604051908101604052809291908181526020018280546103ed90611687565b801561043a5780601f1061040f5761010080835404028352916020019161043a565b820191906000526020600020905b81548152906001019060200180831161041d57829003601f168201915b5050505050815260200190600101906103a2565b50505050935082805480602002602001604051908101604052809291908181526020016000905b8282101561052157838290600052602060002001805461049490611687565b80601f01602080910402602001604051908101604052809291908181526020018280546104c090611687565b801561050d5780601f106104e25761010080835404028352916020019161050d565b820191906000526020600020905b8154815290600101906020018083116104f057829003601f168201915b505050505081526020019060010190610475565b50505050925081805480602002602001604051908101604052809291908181526020016000905b828210156105f457838290600052602060002001805461056790611687565b80601f016020809104026020016040519081016040528092919081815260200182805461059390611687565b80156105e05780601f106105b5576101008083540402835291602001916105e0565b820191906000526020600020905b8154815290600101906020018083116105c357829003601f168201915b505050505081526020019060010190610548565b50505050915080805480602002602001604051908101604052809291908181526020016000905b828210156106c757838290600052602060002001805461063a90611687565b80601f016020809104026020016040519081016040528092919081815260200182805461066690611687565b80156106b35780601f10610688576101008083540402835291602001916106b3565b820191906000526020600020905b81548152906001019060200180831161069657829003601f168201915b50505050508152602001906001019061061b565b505050509050935093509350935090919293565b60058490806001815401808255809150506001900390600052602060002001600090919091909150908161070f9190611864565b506006839080600181540180825580915050600190039060005260206000200160009091909190915090816107449190611864565b506008829080600181540180825580915050600190039060005260206000200160009091909190915090816107799190611864565b506007819080600181540180825580915050600190039060005260206000200160009091909190915090816107ae9190611864565b50600960009080600181540180825580915050600190039060005260206000200160009091909190915055600b806001815401808255809150506001900390600052602060002001600060405180602001604052806000815250909190915090816108199190611864565b506001600c600082825461082d9190611936565b925050819055506004600c549080600181540180825580915050600190039060005260206000200160009091909190915055600a6000908060018154018082558091505060019003906000526020600020016000909190919091505550505050565b60005b60048054905081101561092757600481815481106108b3576108b261155f565b5b906000526020600020015484036109145782600a82815481106108d9576108d861155f565b5b906000526020600020018190555081600b82815481106108fc576108fb61155f565b5b9060005260206000200190816109129190611864565b505b808061091f906115bd565b915050610892565b50505050565b606080606080606080606080600460056006600860076009600a600b8780548060200260200160405190810160405280929190818152602001828054801561099457602002820191906000526020600020905b815481526020019060010190808311610980575b5050505050975086805480602002602001604051908101604052809291908181526020016000905b82821015610a685783829060005260206000200180546109db90611687565b80601f0160208091040260200160405190810160405280929190818152602001828054610a0790611687565b8015610a545780601f10610a2957610100808354040283529160200191610a54565b820191906000526020600020905b815481529060010190602001808311610a3757829003601f168201915b5050505050815260200190600101906109bc565b50505050965085805480602002602001604051908101604052809291908181526020016000905b82821015610b3b578382906000526020600020018054610aae90611687565b80601f0160208091040260200160405190810160405280929190818152602001828054610ada90611687565b8015610b275780601f10610afc57610100808354040283529160200191610b27565b820191906000526020600020905b815481529060010190602001808311610b0a57829003601f168201915b505050505081526020019060010190610a8f565b50505050955084805480602002602001604051908101604052809291908181526020016000905b82821015610c0e578382906000526020600020018054610b8190611687565b80601f0160208091040260200160405190810160405280929190818152602001828054610bad90611687565b8015610bfa5780601f10610bcf57610100808354040283529160200191610bfa565b820191906000526020600020905b815481529060010190602001808311610bdd57829003601f168201915b505050505081526020019060010190610b62565b50505050945083805480602002602001604051908101604052809291908181526020016000905b82821015610ce1578382906000526020600020018054610c5490611687565b80601f0160208091040260200160405190810160405280929190818152602001828054610c8090611687565b8015610ccd5780601f10610ca257610100808354040283529160200191610ccd565b820191906000526020600020905b815481529060010190602001808311610cb057829003601f168201915b505050505081526020019060010190610c35565b50505050935082805480602002602001604051908101604052809291908181526020018280548015610d3257602002820191906000526020600020905b815481526020019060010190808311610d1e575b5050505050925081805480602002602001604051908101604052809291908181526020018280548015610d8457602002820191906000526020600020905b815481526020019060010190808311610d70575b5050505050915080805480602002602001604051908101604052809291908181526020016000905b82821015610e58578382906000526020600020018054610dcb90611687565b80601f0160208091040260200160405190810160405280929190818152602001828054610df790611687565b8015610e445780601f10610e1957610100808354040283529160200191610e44565b820191906000526020600020905b815481529060010190602001808311610e2757829003601f168201915b505050505081526020019060010190610dac565b505050509050975097509750975097509750975097509091929394959697565b6000604051905090565b600080fd5b600080fd5b6000819050919050565b610e9f81610e8c565b8114610eaa57600080fd5b50565b600081359050610ebc81610e96565b92915050565b60008060408385031215610ed957610ed8610e82565b5b6000610ee785828601610ead565b9250506020610ef885828601610ead565b9150509250929050565b600080fd5b600080fd5b6000601f19601f8301169050919050565b7f4e487b7100000000000000000000000000000000000000000000000000000000600052604160045260246000fd5b610f5582610f0c565b810181811067ffffffffffffffff82111715610f7457610f73610f1d565b5b80604052505050565b6000610f87610e78565b9050610f938282610f4c565b919050565b600067ffffffffffffffff821115610fb357610fb2610f1d565b5b610fbc82610f0c565b9050602081019050919050565b82818337600083830152505050565b6000610feb610fe684610f98565b610f7d565b90508281526020810184848401111561100757611006610f07565b5b611012848285610fc9565b509392505050565b600082601f83011261102f5761102e610f02565b5b813561103f848260208601610fd8565b91505092915050565b6000806000806080858703121561106257611061610e82565b5b600085013567ffffffffffffffff8111156110805761107f610e87565b5b61108c8782880161101a565b945050602085013567ffffffffffffffff8111156110ad576110ac610e87565b5b6110b98782880161101a565b935050604085013567ffffffffffffffff8111156110da576110d9610e87565b5b6110e68782880161101a565b925050606085013567ffffffffffffffff81111561110757611106610e87565b5b6111138782880161101a565b91505092959194509250565b600073ffffffffffffffffffffffffffffffffffffffff82169050919050565b600061114a8261111f565b9050919050565b61115a8161113f565b82525050565b600081519050919050565b600082825260208201905092915050565b60005b8381101561119a57808201518184015260208101905061117f565b60008484015250505050565b60006111b182611160565b6111bb818561116b565b93506111cb81856020860161117c565b6111d481610f0c565b840191505092915050565b60006040820190506111f46000830185611151565b818103602083015261120681846111a6565b90509392505050565b600081519050919050565b600082825260208201905092915050565b6000819050602082019050919050565b600082825260208201905092915050565b600061125782611160565b611261818561123b565b935061127181856020860161117c565b61127a81610f0c565b840191505092915050565b6000611291838361124c565b905092915050565b6000602082019050919050565b60006112b18261120f565b6112bb818561121a565b9350836020820285016112cd8561122b565b8060005b8581101561130957848403895281516112ea8582611285565b94506112f583611299565b925060208a019950506001810190506112d1565b50829750879550505050505092915050565b6000608082019050818103600083015261133581876112a6565b9050818103602083015261134981866112a6565b9050818103604083015261135d81856112a6565b9050818103606083015261137181846112a6565b905095945050505050565b60008060006060848603121561139557611394610e82565b5b60006113a386828701610ead565b93505060206113b486828701610ead565b925050604084013567ffffffffffffffff8111156113d5576113d4610e87565b5b6113e18682870161101a565b9150509250925092565b600081519050919050565b600082825260208201905092915050565b6000819050602082019050919050565b61142081610e8c565b82525050565b60006114328383611417565b60208301905092915050565b6000602082019050919050565b6000611456826113eb565b61146081856113f6565b935061146b83611407565b8060005b8381101561149c5781516114838882611426565b975061148e8361143e565b92505060018101905061146f565b5085935050505092915050565b60006101008201905081810360008301526114c4818b61144b565b905081810360208301526114d8818a6112a6565b905081810360408301526114ec81896112a6565b9050818103606083015261150081886112a6565b9050818103608083015261151481876112a6565b905081810360a0830152611528818661144b565b905081810360c083015261153c818561144b565b905081810360e083015261155081846112a6565b90509998505050505050505050565b7f4e487b7100000000000000000000000000000000000000000000000000000000600052603260045260246000fd5b7f4e487b7100000000000000000000000000000000000000000000000000000000600052601160045260246000fd5b60006115c882610e8c565b91507fffffffffffffffffffffffffffffffffffffffffffffffffffffffffffffffff82036115fa576115f961158e565b5b600182019050919050565b600081905092915050565b600061161b82611160565b6116258185611605565b935061163581856020860161117c565b80840191505092915050565b600061164d8284611610565b915081905092915050565b7f4e487b7100000000000000000000000000000000000000000000000000000000600052602260045260246000fd5b6000600282049050600182168061169f57607f821691505b6020821081036116b2576116b1611658565b5b50919050565b60008190508160005260206000209050919050565b60006020601f8301049050919050565b600082821b905092915050565b60006008830261171a7fffffffffffffffffffffffffffffffffffffffffffffffffffffffffffffffff826116dd565b61172486836116dd565b95508019841693508086168417925050509392505050565b6000819050919050565b600061176161175c61175784610e8c565b61173c565b610e8c565b9050919050565b6000819050919050565b61177b83611746565b61178f61178782611768565b8484546116ea565b825550505050565b600090565b6117a4611797565b6117af818484611772565b505050565b5b818110156117d3576117c860008261179c565b6001810190506117b5565b5050565b601f821115611818576117e9816116b8565b6117f2846116cd565b81016020851015611801578190505b61181561180d856116cd565b8301826117b4565b50505b505050565b600082821c905092915050565b600061183b6000198460080261181d565b1980831691505092915050565b6000611854838361182a565b9150826002028217905092915050565b61186d82611160565b67ffffffffffffffff81111561188657611885610f1d565b5b6118908254611687565b61189b8282856117d7565b600060209050601f8311600181146118ce57600084156118bc578287015190505b6118c68582611848565b86555061192e565b601f1984166118dc866116b8565b60005b82811015611904578489015182556001820191506020850194506020810190506118df565b86831015611921578489015161191d601f89168261182a565b8355505b6001600288020188555050505b505050505050565b600061194182610e8c565b915061194c83610e8c565b92508282019050808211156119645761196361158e565b5b9291505056fea2646970667358221220ca149a4735d8c127b9e1133f293898437b494952f122c2820ceec23cd82a52a764736f6c63430008130033",
  "immutableReferences": {},
  "source": "// SPDX-License-Identifier: MIT\r\npragma solidity >=0.4.22 <0.9.0;\r\n\r\ncontract register {\r\n\r\n  string[] _names;\r\n  string[] _adhars;\r\n  string[] _passwords;\r\n  string[] _phones;\r\n\r\n  uint[] _complaintids;\r\n  string[] _cadhars;\r\n  string[] _cnames;\r\n  string[] _cfiles;\r\n  string[] _complaints;\r\n  uint[] _cstatus;\r\n  uint[] _fstatus;\r\n  string[] _cfirs;\r\n\r\n  uint cid;\r\n  address admin;\r\n\r\n  constructor(){\r\n    cid=0;\r\n    admin=msg.sender;\r\n  }\r\n\r\n  mapping(string=>bool) _registeredUsers;\r\n\r\n  function addUser(string memory name,string memory adhar,string memory password,string memory phone) public {\r\n    require(!_registeredUsers[adhar]);\r\n\r\n    _names.push(name);\r\n    _adhars.push(adhar);\r\n    _passwords.push(password);\r\n    _phones.push(phone);\r\n    _registeredUsers[adhar]=true;\r\n  }\r\n\r\n  function viewUsers() public view returns(string[] memory,string[] memory,string[] memory,string[] memory){\r\n    return(_names,_adhars,_passwords,_phones);\r\n  }\r\n\r\n  function addComplaints(string memory adhaar,string memory name,string memory complaint,string memory filehash) public {\r\n    _cadhars.push(adhaar);\r\n    _cnames.push(name);\r\n    _complaints.push(complaint);\r\n    _cfiles.push(filehash);\r\n    _cstatus.push(0);\r\n    _cfirs.push(\"\");\r\n    cid+=1;\r\n    _complaintids.push(cid);\r\n    _fstatus.push(0);\r\n  }\r\n\r\n  function viewComplaints() public view returns(uint[] memory,string[] memory,string[] memory,string[] memory,string[] memory,uint[] memory,uint[] memory,string[] memory){\r\n    return(_complaintids,_cadhars,_cnames,_complaints,_cfiles,_cstatus,_fstatus,_cfirs);\r\n  }\r\n\r\n  function verifyLogin() public view returns(address,string memory){\r\n      return(admin,\"1234\");\r\n  }\r\n\r\n  function updateCase(uint complaintid,uint status) public {\r\n    uint i;\r\n    for(i=0;i<_complaintids.length;i++){\r\n      if(complaintid==_complaintids[i]) {\r\n        _cstatus[i]=status;\r\n      }\r\n    }\r\n  }\r\n\r\n  function updatefir(uint complaintid,uint status,string memory filehash) public {\r\n    uint i;\r\n    for(i=0;i<_complaintids.length;i++){\r\n      if(complaintid==_complaintids[i]){\r\n          _fstatus[i]=status;\r\n          _cfirs[i]=filehash;\r\n      }\r\n    }\r\n  }\r\n}\r\n",
  "sourcePath": "C:\\Users\\Madhu\\Desktop\\complaint-tracking-system-kits\\contracts\\register.sol",
  "compiler": {
    "name": "solc",
    "version": "0.8.19+commit.7dd6d404.Emscripten.clang"
  },
  "schemaVersion": "3.4.16",
  "updatedAt": "2024-03-05T19:34:48.052Z",
  "networkType": "ethereum",
  "devdoc": {
    "kind": "dev",
    "methods": {},
    "version": 1
  },
  "userdoc": {
    "kind": "user",
    "methods": {},
    "version": 1
  }
}