{
  "contractName": "register",
  "abi": [
    {
      "inputs": [
        {
          "internalType": "string",
          "name": "name",
          "type": "string"
        },
        {
          "internalType": "string",
          "name": "adhar",
          "type": "string"
        },
        {
          "internalType": "string",
          "name": "password",
          "type": "string"
        },
        {
          "internalType": "string",
          "name": "phone",
          "type": "string"
        }
      ],
      "name": "addUser",
      "outputs": [],
      "stateMutability": "nonpayable",
      "type": "function"
    },
    {
      "inputs": [],
      "name": "viewUsers",
      "outputs": [
        {
          "internalType": "string[]",
          "name": "",
          "type": "string[]"
        },
        {
          "internalType": "string[]",
          "name": "",
          "type": "string[]"
        },
        {
          "internalType": "string[]",
          "name": "",
          "type": "string[]"
        },
        {
          "internalType": "string[]",
          "name": "",
          "type": "string[]"
        }
      ],
      "stateMutability": "view",
      "type": "function"
    },
    {
      "inputs": [
        {
          "internalType": "string",
          "name": "adhaar",
          "type": "string"
        },
        {
          "internalType": "string",
          "name": "name",
          "type": "string"
        },
        {
          "internalType": "string",
          "name": "complaint",
          "type": "string"
        },
        {
          "internalType": "string",
          "name": "filehash",
          "type": "string"
        }
      ],
      "name": "addComplaints",
      "outputs": [],
      "stateMutability": "nonpayable",
      "type": "function"
    },
    {
      "inputs": [],
      "name": "viewComplaints",
      "outputs": [
        {
          "internalType": "string[]",
          "name": "",
          "type": "string[]"
        },
        {
          "internalType": "string[]",
          "name": "",
          "type": "string[]"
        },
        {
          "internalType": "string[]",
          "name": "",
          "type": "string[]"
        },
        {
          "internalType": "string[]",
          "name": "",
          "type": "string[]"
        },
        {
          "internalType": "uint256[]",
          "name": "",
          "type": "uint256[]"
        },
        {
          "internalType": "string[]",
          "name": "",
          "type": "string[]"
        }
      ],
      "stateMutability": "view",
      "type": "function"
    }
  ],
  "bytecode": "0x608060405234801561001057600080fd5b506113e8806100206000396000f3fe608060405234801561001057600080fd5b506004361061004c5760003560e01c806301cda3ac1461005157806314ebdb791461006d57806345520a521461008e578063df1d891e146100aa575b600080fd5b61006b60048036038101906100669190610cb5565b6100cd565b005b610075610214565b6040516100859493929190610ecd565b60405180910390f35b6100a860048036038101906100a39190610cb5565b61057c565b005b6100b26106c1565b6040516100c496959493929190610ff6565b60405180910390f35b600a836040516100dd91906110bd565b908152602001604051809103902060009054906101000a900460ff161561010357600080fd5b60008490806001815401808255809150506001900390600052602060002001600090919091909150908161013791906112e0565b5060018390806001815401808255809150506001900390600052602060002001600090919091909150908161016c91906112e0565b506002829080600181540180825580915050600190039060005260206000200160009091909190915090816101a191906112e0565b506003819080600181540180825580915050600190039060005260206000200160009091909190915090816101d691906112e0565b506001600a846040516101e991906110bd565b908152602001604051809103902060006101000a81548160ff02191690831515021790555050505050565b606080606080600060016002600383805480602002602001604051908101604052809291908181526020016000905b828210156102ef57838290600052602060002001805461026290611103565b80601f016020809104026020016040519081016040528092919081815260200182805461028e90611103565b80156102db5780601f106102b0576101008083540402835291602001916102db565b820191906000526020600020905b8154815290600101906020018083116102be57829003601f168201915b505050505081526020019060010190610243565b50505050935082805480602002602001604051908101604052809291908181526020016000905b828210156103c257838290600052602060002001805461033590611103565b80601f016020809104026020016040519081016040528092919081815260200182805461036190611103565b80156103ae5780601f10610383576101008083540402835291602001916103ae565b820191906000526020600020905b81548152906001019060200180831161039157829003601f168201915b505050505081526020019060010190610316565b50505050925081805480602002602001604051908101604052809291908181526020016000905b8282101561049557838290600052602060002001805461040890611103565b80601f016020809104026020016040519081016040528092919081815260200182805461043490611103565b80156104815780601f1061045657610100808354040283529160200191610481565b820191906000526020600020905b81548152906001019060200180831161046457829003601f168201915b5050505050815260200190600101906103e9565b50505050915080805480602002602001604051908101604052809291908181526020016000905b828210156105685783829060005260206000200180546104db90611103565b80601f016020809104026020016040519081016040528092919081815260200182805461050790611103565b80156105545780601f1061052957610100808354040283529160200191610554565b820191906000526020600020905b81548152906001019060200180831161053757829003601f168201915b5050505050815260200190600101906104bc565b505050509050935093509350935090919293565b6004849080600181540180825580915050600190039060005260206000200160009091909190915090816105b091906112e0565b506005839080600181540180825580915050600190039060005260206000200160009091909190915090816105e591906112e0565b5060078290806001815401808255809150506001900390600052602060002001600090919091909150908161061a91906112e0565b5060068190806001815401808255809150506001900390600052602060002001600090919091909150908161064f91906112e0565b506008600090806001815401808255809150506001900390600052602060002001600090919091909150556009806001815401808255809150506001900390600052602060002001600060405180602001604052806000815250909190915090816106ba91906112e0565b5050505050565b60608060608060608060046005600760066008600985805480602002602001604051908101604052809291908181526020016000905b828210156107a357838290600052602060002001805461071690611103565b80601f016020809104026020016040519081016040528092919081815260200182805461074290611103565b801561078f5780601f106107645761010080835404028352916020019161078f565b820191906000526020600020905b81548152906001019060200180831161077257829003601f168201915b5050505050815260200190600101906106f7565b50505050955084805480602002602001604051908101604052809291908181526020016000905b828210156108765783829060005260206000200180546107e990611103565b80601f016020809104026020016040519081016040528092919081815260200182805461081590611103565b80156108625780601f1061083757610100808354040283529160200191610862565b820191906000526020600020905b81548152906001019060200180831161084557829003601f168201915b5050505050815260200190600101906107ca565b50505050945083805480602002602001604051908101604052809291908181526020016000905b828210156109495783829060005260206000200180546108bc90611103565b80601f01602080910402602001604051908101604052809291908181526020018280546108e890611103565b80156109355780601f1061090a57610100808354040283529160200191610935565b820191906000526020600020905b81548152906001019060200180831161091857829003601f168201915b50505050508152602001906001019061089d565b50505050935082805480602002602001604051908101604052809291908181526020016000905b82821015610a1c57838290600052602060002001805461098f90611103565b80601f01602080910402602001604051908101604052809291908181526020018280546109bb90611103565b8015610a085780601f106109dd57610100808354040283529160200191610a08565b820191906000526020600020905b8154815290600101906020018083116109eb57829003601f168201915b505050505081526020019060010190610970565b50505050925081805480602002602001604051908101604052809291908181526020018280548015610a6d57602002820191906000526020600020905b815481526020019060010190808311610a59575b5050505050915080805480602002602001604051908101604052809291908181526020016000905b82821015610b41578382906000526020600020018054610ab490611103565b80601f0160208091040260200160405190810160405280929190818152602001828054610ae090611103565b8015610b2d5780601f10610b0257610100808354040283529160200191610b2d565b820191906000526020600020905b815481529060010190602001808311610b1057829003601f168201915b505050505081526020019060010190610a95565b505050509050955095509550955095509550909192939495565b6000604051905090565b600080fd5b600080fd5b600080fd5b600080fd5b6000601f19601f8301169050919050565b7f4e487b7100000000000000000000000000000000000000000000000000000000600052604160045260246000fd5b610bc282610b79565b810181811067ffffffffffffffff82111715610be157610be0610b8a565b5b80604052505050565b6000610bf4610b5b565b9050610c008282610bb9565b919050565b600067ffffffffffffffff821115610c2057610c1f610b8a565b5b610c2982610b79565b9050602081019050919050565b82818337600083830152505050565b6000610c58610c5384610c05565b610bea565b905082815260208101848484011115610c7457610c73610b74565b5b610c7f848285610c36565b509392505050565b600082601f830112610c9c57610c9b610b6f565b5b8135610cac848260208601610c45565b91505092915050565b60008060008060808587031215610ccf57610cce610b65565b5b600085013567ffffffffffffffff811115610ced57610cec610b6a565b5b610cf987828801610c87565b945050602085013567ffffffffffffffff811115610d1a57610d19610b6a565b5b610d2687828801610c87565b935050604085013567ffffffffffffffff811115610d4757610d46610b6a565b5b610d5387828801610c87565b925050606085013567ffffffffffffffff811115610d7457610d73610b6a565b5b610d8087828801610c87565b91505092959194509250565b600081519050919050565b600082825260208201905092915050565b6000819050602082019050919050565b600081519050919050565b600082825260208201905092915050565b60005b83811015610df2578082015181840152602081019050610dd7565b60008484015250505050565b6000610e0982610db8565b610e138185610dc3565b9350610e23818560208601610dd4565b610e2c81610b79565b840191505092915050565b6000610e438383610dfe565b905092915050565b6000602082019050919050565b6000610e6382610d8c565b610e6d8185610d97565b935083602082028501610e7f85610da8565b8060005b85811015610ebb5784840389528151610e9c8582610e37565b9450610ea783610e4b565b925060208a01995050600181019050610e83565b50829750879550505050505092915050565b60006080820190508181036000830152610ee78187610e58565b90508181036020830152610efb8186610e58565b90508181036040830152610f0f8185610e58565b90508181036060830152610f238184610e58565b905095945050505050565b600081519050919050565b600082825260208201905092915050565b6000819050602082019050919050565b6000819050919050565b610f6d81610f5a565b82525050565b6000610f7f8383610f64565b60208301905092915050565b6000602082019050919050565b6000610fa382610f2e565b610fad8185610f39565b9350610fb883610f4a565b8060005b83811015610fe9578151610fd08882610f73565b9750610fdb83610f8b565b925050600181019050610fbc565b5085935050505092915050565b600060c08201905081810360008301526110108189610e58565b905081810360208301526110248188610e58565b905081810360408301526110388187610e58565b9050818103606083015261104c8186610e58565b905081810360808301526110608185610f98565b905081810360a08301526110748184610e58565b9050979650505050505050565b600081905092915050565b600061109782610db8565b6110a18185611081565b93506110b1818560208601610dd4565b80840191505092915050565b60006110c9828461108c565b915081905092915050565b7f4e487b7100000000000000000000000000000000000000000000000000000000600052602260045260246000fd5b6000600282049050600182168061111b57607f821691505b60208210810361112e5761112d6110d4565b5b50919050565b60008190508160005260206000209050919050565b60006020601f8301049050919050565b600082821b905092915050565b6000600883026111967fffffffffffffffffffffffffffffffffffffffffffffffffffffffffffffffff82611159565b6111a08683611159565b95508019841693508086168417925050509392505050565b6000819050919050565b60006111dd6111d86111d384610f5a565b6111b8565b610f5a565b9050919050565b6000819050919050565b6111f7836111c2565b61120b611203826111e4565b848454611166565b825550505050565b600090565b611220611213565b61122b8184846111ee565b505050565b5b8181101561124f57611244600082611218565b600181019050611231565b5050565b601f8211156112945761126581611134565b61126e84611149565b8101602085101561127d578190505b61129161128985611149565b830182611230565b50505b505050565b600082821c905092915050565b60006112b760001984600802611299565b1980831691505092915050565b60006112d083836112a6565b9150826002028217905092915050565b6112e982610db8565b67ffffffffffffffff81111561130257611301610b8a565b5b61130c8254611103565b611317828285611253565b600060209050601f83116001811461134a5760008415611338578287015190505b61134285826112c4565b8655506113aa565b601f19841661135886611134565b60005b828110156113805784890151825560018201915060208501945060208101905061135b565b8683101561139d5784890151611399601f8916826112a6565b8355505b6001600288020188555050505b50505050505056fea26469706673582212207411b0c5ab96459b656ea5618c78ea539b5568863d3d03805ada950cc2bb253f64736f6c63430008130033",
  "immutableReferences": {},
  "source": "// SPDX-License-Identifier: MIT\npragma solidity >=0.4.22 <0.9.0;\n\ncontract register {\n\n  string[] _names;\n  string[] _adhars;\n  string[] _passwords;\n  string[] _phones;\n\n  string[] _cadhars;\n  string[] _cnames;\n  string[] _cfiles;\n  string[] _complaints;\n  uint[] _cstatus;\n  string[] _cfirs;\n\n  mapping(string=>bool) _registeredUsers;\n\n  function addUser(string memory name,string memory adhar,string memory password,string memory phone) public {\n    require(!_registeredUsers[adhar]);\n\n    _names.push(name);\n    _adhars.push(adhar);\n    _passwords.push(password);\n    _phones.push(phone);\n    _registeredUsers[adhar]=true;\n  }\n\n  function viewUsers() public view returns(string[] memory,string[] memory,string[] memory,string[] memory){\n    return(_names,_adhars,_passwords,_phones);\n  }\n\n  function addComplaints(string memory adhaar,string memory name,string memory complaint,string memory filehash) public {\n    _cadhars.push(adhaar);\n    _cnames.push(name);\n    _complaints.push(complaint);\n    _cfiles.push(filehash);\n    _cstatus.push(0);\n    _cfirs.push(\"\");\n  }\n\n  function viewComplaints() public view returns(string[] memory,string[] memory,string[] memory,string[] memory,uint[] memory,string[] memory){\n    return(_cadhars,_cnames,_complaints,_cfiles,_cstatus,_cfirs);\n  }\n}\n",
  "sourcePath": "/Users/ms/Downloads/complaint-tracking-system/contracts/register.sol",
  "compiler": {
    "name": "solc",
    "version": "0.8.19+commit.7dd6d404.Emscripten.clang"
  },
  "schemaVersion": "3.4.16",
  "updatedAt": "2024-03-05T14:32:04.183Z",
  "devdoc": {
    "kind": "dev",
    "methods": {},
    "version": 1
  },
  "userdoc": {
    "kind": "user",
    "methods": {},
    "version": 1
  }
}